{
  "_format": "hh-sol-artifact-1",
  "contractName": "Voting",
  "sourceName": "contracts/Voting.sol",
  "abi": [
    {
      "inputs": [],
      "stateMutability": "nonpayable",
      "type": "constructor"
    },
    {
      "inputs": [],
      "name": "addCandidate",
      "outputs": [],
      "stateMutability": "nonpayable",
      "type": "function"
    },
    {
      "inputs": [],
      "name": "addVoter",
      "outputs": [],
      "stateMutability": "nonpayable",
      "type": "function"
    },
    {
      "inputs": [
        {
          "internalType": "address",
          "name": "candidate",
          "type": "address"
        }
      ],
      "name": "addvote",
      "outputs": [],
      "stateMutability": "nonpayable",
      "type": "function"
    },
    {
      "inputs": [
        {
          "internalType": "uint256",
          "name": "",
          "type": "uint256"
        }
      ],
      "name": "candidates",
      "outputs": [
        {
          "internalType": "address",
          "name": "",
          "type": "address"
        }
      ],
      "stateMutability": "view",
      "type": "function"
    },
    {
      "inputs": [],
      "name": "endSeason",
      "outputs": [],
      "stateMutability": "nonpayable",
      "type": "function"
    },
    {
      "inputs": [
        {
          "internalType": "uint256",
          "name": "index",
          "type": "uint256"
        }
      ],
      "name": "getCandidateAt",
      "outputs": [
        {
          "internalType": "address",
          "name": "",
          "type": "address"
        }
      ],
      "stateMutability": "view",
      "type": "function"
    },
    {
      "inputs": [],
      "name": "getCandidates",
      "outputs": [
        {
          "internalType": "address[]",
          "name": "",
          "type": "address[]"
        }
      ],
      "stateMutability": "view",
      "type": "function"
    },
    {
      "inputs": [],
      "name": "getCandidatesLength",
      "outputs": [
        {
          "internalType": "uint256",
          "name": "",
          "type": "uint256"
        }
      ],
      "stateMutability": "view",
      "type": "function"
    },
    {
      "inputs": [],
      "name": "getResult",
      "outputs": [
        {
          "internalType": "address",
          "name": "",
          "type": "address"
        }
      ],
      "stateMutability": "nonpayable",
      "type": "function"
    },
    {
      "inputs": [
        {
          "internalType": "uint256",
          "name": "index",
          "type": "uint256"
        }
      ],
      "name": "getVoterAt",
      "outputs": [
        {
          "internalType": "address",
          "name": "",
          "type": "address"
        }
      ],
      "stateMutability": "view",
      "type": "function"
    },
    {
      "inputs": [],
      "name": "getVoterLength",
      "outputs": [
        {
          "internalType": "uint256",
          "name": "",
          "type": "uint256"
        }
      ],
      "stateMutability": "view",
      "type": "function"
    },
    {
      "inputs": [],
      "name": "hasVoterVoted",
      "outputs": [
        {
          "internalType": "bool",
          "name": "",
          "type": "bool"
        }
      ],
      "stateMutability": "view",
      "type": "function"
    },
    {
      "inputs": [],
      "name": "isCandidate",
      "outputs": [
        {
          "internalType": "bool",
          "name": "",
          "type": "bool"
        }
      ],
      "stateMutability": "view",
      "type": "function"
    },
    {
      "inputs": [],
      "name": "isVoter",
      "outputs": [
        {
          "internalType": "bool",
          "name": "",
          "type": "bool"
        }
      ],
      "stateMutability": "view",
      "type": "function"
    },
    {
      "inputs": [
        {
          "internalType": "string",
          "name": "nameOfSeason",
          "type": "string"
        }
      ],
      "name": "newSeason",
      "outputs": [],
      "stateMutability": "nonpayable",
      "type": "function"
    },
    {
      "inputs": [],
      "name": "ongoingSeason",
      "outputs": [
        {
          "internalType": "bool",
          "name": "",
          "type": "bool"
        }
      ],
      "stateMutability": "view",
      "type": "function"
    },
    {
      "inputs": [],
      "name": "owner",
      "outputs": [
        {
          "internalType": "address",
          "name": "",
          "type": "address"
        }
      ],
      "stateMutability": "view",
      "type": "function"
    },
    {
      "inputs": [],
      "name": "resultDeclared",
      "outputs": [
        {
          "internalType": "bool",
          "name": "",
          "type": "bool"
        }
      ],
      "stateMutability": "view",
      "type": "function"
    },
    {
      "inputs": [],
      "name": "seasonName",
      "outputs": [
        {
          "internalType": "string",
          "name": "",
          "type": "string"
        }
      ],
      "stateMutability": "view",
      "type": "function"
    },
    {
      "inputs": [],
      "name": "seasonStatus",
      "outputs": [
        {
          "internalType": "bool",
          "name": "",
          "type": "bool"
        }
      ],
      "stateMutability": "view",
      "type": "function"
    },
    {
      "inputs": [],
      "name": "timeOfDeployment",
      "outputs": [
        {
          "internalType": "uint256",
          "name": "",
          "type": "uint256"
        }
      ],
      "stateMutability": "view",
      "type": "function"
    },
    {
      "inputs": [
        {
          "internalType": "uint256",
          "name": "",
          "type": "uint256"
        }
      ],
      "name": "voters",
      "outputs": [
        {
          "internalType": "address",
          "name": "",
          "type": "address"
        }
      ],
      "stateMutability": "view",
      "type": "function"
    },
    {
      "inputs": [],
      "name": "winners",
      "outputs": [
        {
          "internalType": "address",
          "name": "",
          "type": "address"
        }
      ],
      "stateMutability": "view",
      "type": "function"
    }
  ],
  "bytecode": "0x60806040526000600260006101000a81548160ff02191690831515021790555034801561002b57600080fd5b50336000806101000a81548173ffffffffffffffffffffffffffffffffffffffff021916908373ffffffffffffffffffffffffffffffffffffffff1602179055506126be8061007b6000396000f3fe608060405234801561001057600080fd5b506004361061014d5760003560e01c80638da5cb5b116100c3578063c6a02cc91161007c578063c6a02cc914610346578063cd555bdf14610364578063d87c4be314610382578063da58c7d9146103a0578063db5f971e146103d0578063de292789146103ee5761014d565b80638da5cb5b1461026e5780639ad395521461028c578063a487bcd8146102bc578063aedb0f0e146102da578063b81fc9151461030a578063c010b3d6146103285761014d565b806321ecf91a1161011557806321ecf91a146101e65780633477ee2e146102025780633dcdb6721461023257806342cda7b01461023c5780635f9bb8e31461025a57806375043ebb146102645761014d565b806305ad45a41461015257806306a49fce1461017057806310b7da241461018e5780631859df65146101aa5780631a4418ca146101c8575b600080fd5b61015a61040c565b604051610167919061177d565b60405180910390f35b610178610419565b6040516101859190611888565b60405180910390f35b6101a860048036038101906101a39190611a04565b6104f6565b005b6101b26105d9565b6040516101bf919061177d565b60405180910390f35b6101d06105e6565b6040516101dd919061177d565b60405180910390f35b61020060048036038101906101fb9190611a79565b6105ec565b005b61021c60048036038101906102179190611ad2565b610865565b6040516102299190611b0e565b60405180910390f35b61023a6108a4565b005b610244610cca565b6040516102519190611b44565b60405180910390f35b610262610cdd565b005b61026c610f68565b005b6102766111f3565b6040516102839190611b0e565b60405180910390f35b6102a660048036038101906102a19190611ad2565b611217565b6040516102b39190611b0e565b60405180910390f35b6102c46112a6565b6040516102d19190611b0e565b60405180910390f35b6102f460048036038101906102ef9190611ad2565b6112cc565b6040516103019190611b0e565b60405180910390f35b61031261135b565b60405161031f9190611b44565b60405180910390f35b610330611383565b60405161033d9190611bde565b60405180910390f35b61034e611411565b60405161035b9190611b44565b60405180910390f35b61036c611424565b6040516103799190611b44565b60405180910390f35b61038a611478565b6040516103979190611b44565b60405180910390f35b6103ba60048036038101906103b59190611ad2565b6114cc565b6040516103c79190611b0e565b60405180910390f35b6103d861150b565b6040516103e59190611b44565b60405180910390f35b6103f661155f565b6040516104039190611b0e565b60405180910390f35b6000600980549050905090565b6060600260009054906101000a900460ff1661046a576040517f08c379a000000000000000000000000000000000000000000000000000000000815260040161046190611c4c565b60405180910390fd5b60088054806020026020016040519081016040528092919081815260200182805480156104ec57602002820191906000526020600020905b8160009054906101000a900473ffffffffffffffffffffffffffffffffffffffff1673ffffffffffffffffffffffffffffffffffffffff16815260200190600101908083116104a2575b5050505050905090565b60001515600260009054906101000a900460ff1615151461054c576040517f08c379a000000000000000000000000000000000000000000000000000000000815260040161054390611d04565b60405180910390fd5b60008054906101000a900473ffffffffffffffffffffffffffffffffffffffff1673ffffffffffffffffffffffffffffffffffffffff163373ffffffffffffffffffffffffffffffffffffffff16146105a457600080fd5b426003819055506001600260006101000a81548160ff02191690831515021790555080600190816105d59190611f30565b5050565b6000600880549050905090565b60035481565b60001515600560003373ffffffffffffffffffffffffffffffffffffffff1673ffffffffffffffffffffffffffffffffffffffff16815260200190815260200160002060009054906101000a900460ff1615151461067f576040517f08c379a00000000000000000000000000000000000000000000000000000000081526004016106769061204e565b60405180910390fd5b600760003373ffffffffffffffffffffffffffffffffffffffff1673ffffffffffffffffffffffffffffffffffffffff16815260200190815260200160002060009054906101000a900460ff1661070b576040517f08c379a0000000000000000000000000000000000000000000000000000000008152600401610702906120ba565b60405180910390fd5b600660008273ffffffffffffffffffffffffffffffffffffffff1673ffffffffffffffffffffffffffffffffffffffff16815260200190815260200160002060009054906101000a900460ff16610797576040517f08c379a000000000000000000000000000000000000000000000000000000000815260040161078e90612126565b60405180910390fd5b6101a46003546107a79190612175565b4211156107b357600080fd5b6001600560003373ffffffffffffffffffffffffffffffffffffffff1673ffffffffffffffffffffffffffffffffffffffff16815260200190815260200160002060006101000a81548160ff0219169083151502179055506001600460008373ffffffffffffffffffffffffffffffffffffffff1673ffffffffffffffffffffffffffffffffffffffff168152602001908152602001600020600082825461085b9190612175565b9250508190555050565b6008818154811061087557600080fd5b906000526020600020016000915054906101000a900473ffffffffffffffffffffffffffffffffffffffff1681565b60011515600260009054906101000a900460ff161515146108fa576040517f08c379a00000000000000000000000000000000000000000000000000000000081526004016108f19061221b565b60405180910390fd5b600a60149054906101000a900460ff16610949576040517f08c379a0000000000000000000000000000000000000000000000000000000008152600401610940906122ad565b60405180910390fd5b60005b600880549050811015610a74576004600060088381548110610971576109706122cd565b5b9060005260206000200160009054906101000a900473ffffffffffffffffffffffffffffffffffffffff1673ffffffffffffffffffffffffffffffffffffffff1673ffffffffffffffffffffffffffffffffffffffff1681526020019081526020016000206000905560066000600883815481106109f2576109f16122cd565b5b9060005260206000200160009054906101000a900473ffffffffffffffffffffffffffffffffffffffff1673ffffffffffffffffffffffffffffffffffffffff1673ffffffffffffffffffffffffffffffffffffffff16815260200190815260200160002060006101000a81549060ff0219169055808060010191505061094c565b5060005b600980549050811015610bac576005600060098381548110610a9d57610a9c6122cd565b5b9060005260206000200160009054906101000a900473ffffffffffffffffffffffffffffffffffffffff1673ffffffffffffffffffffffffffffffffffffffff1673ffffffffffffffffffffffffffffffffffffffff16815260200190815260200160002060006101000a81549060ff02191690556007600060098381548110610b2a57610b296122cd565b5b9060005260206000200160009054906101000a900473ffffffffffffffffffffffffffffffffffffffff1673ffffffffffffffffffffffffffffffffffffffff1673ffffffffffffffffffffffffffffffffffffffff16815260200190815260200160002060006101000a81549060ff02191690558080600101915050610a78565b5060005b600880549050811015610c0b5760088181548110610bd157610bd06122cd565b5b9060005260206000200160006101000a81549073ffffffffffffffffffffffffffffffffffffffff02191690558080600101915050610bb0565b5060005b600980549050811015610c6a5760098181548110610c3057610c2f6122cd565b5b9060005260206000200160006101000a81549073ffffffffffffffffffffffffffffffffffffffff02191690558080600101915050610c0f565b506000600260006101000a81548160ff02191690831515021790555060006003819055506000600a60146101000a81548160ff0219169083151502179055506040518060200160405280600081525060019081610cc79190611f30565b50565b600260009054906101000a900460ff1681565b60001515600760003373ffffffffffffffffffffffffffffffffffffffff1673ffffffffffffffffffffffffffffffffffffffff16815260200190815260200160002060009054906101000a900460ff16151514610d70576040517f08c379a0000000000000000000000000000000000000000000000000000000008152600401610d6790612348565b60405180910390fd5b60001515600660003373ffffffffffffffffffffffffffffffffffffffff1673ffffffffffffffffffffffffffffffffffffffff16815260200190815260200160002060009054906101000a900460ff16151514610e03576040517f08c379a0000000000000000000000000000000000000000000000000000000008152600401610dfa906123da565b60405180910390fd5b60011515600260009054906101000a900460ff16151514610e59576040517f08c379a0000000000000000000000000000000000000000000000000000000008152600401610e509061221b565b60405180910390fd5b61012c600354610e699190612175565b421115610eab576040517f08c379a0000000000000000000000000000000000000000000000000000000008152600401610ea29061246c565b60405180910390fd5b6009339080600181540180825580915050600190039060005260206000200160009091909190916101000a81548173ffffffffffffffffffffffffffffffffffffffff021916908373ffffffffffffffffffffffffffffffffffffffff1602179055506001600760003373ffffffffffffffffffffffffffffffffffffffff1673ffffffffffffffffffffffffffffffffffffffff16815260200190815260200160002060006101000a81548160ff021916908315150217905550565b60001515600660003373ffffffffffffffffffffffffffffffffffffffff1673ffffffffffffffffffffffffffffffffffffffff16815260200190815260200160002060009054906101000a900460ff16151514610ffb576040517f08c379a0000000000000000000000000000000000000000000000000000000008152600401610ff2906124d8565b60405180910390fd5b60001515600760003373ffffffffffffffffffffffffffffffffffffffff1673ffffffffffffffffffffffffffffffffffffffff16815260200190815260200160002060009054906101000a900460ff1615151461108e576040517f08c379a00000000000000000000000000000000000000000000000000000000081526004016110859061256a565b60405180910390fd5b60011515600260009054906101000a900460ff161515146110e4576040517f08c379a00000000000000000000000000000000000000000000000000000000081526004016110db9061221b565b60405180910390fd5b61012c6003546110f49190612175565b421115611136576040517f08c379a000000000000000000000000000000000000000000000000000000000815260040161112d906125fc565b60405180910390fd5b6008339080600181540180825580915050600190039060005260206000200160009091909190916101000a81548173ffffffffffffffffffffffffffffffffffffffff021916908373ffffffffffffffffffffffffffffffffffffffff1602179055506001600660003373ffffffffffffffffffffffffffffffffffffffff1673ffffffffffffffffffffffffffffffffffffffff16815260200190815260200160002060006101000a81548160ff021916908315150217905550565b60008054906101000a900473ffffffffffffffffffffffffffffffffffffffff1681565b60006008805490508210611260576040517f08c379a000000000000000000000000000000000000000000000000000000000815260040161125790612668565b60405180910390fd5b60088281548110611274576112736122cd565b5b9060005260206000200160009054906101000a900473ffffffffffffffffffffffffffffffffffffffff169050919050565b600a60009054906101000a900473ffffffffffffffffffffffffffffffffffffffff1681565b60006009805490508210611315576040517f08c379a000000000000000000000000000000000000000000000000000000000815260040161130c90612668565b60405180910390fd5b60098281548110611329576113286122cd565b5b9060005260206000200160009054906101000a900473ffffffffffffffffffffffffffffffffffffffff169050919050565b6000600260009054906101000a900460ff161561137b5760019050611380565b600090505b90565b6001805461139090611d53565b80601f01602080910402602001604051908101604052809291908181526020018280546113bc90611d53565b80156114095780601f106113de57610100808354040283529160200191611409565b820191906000526020600020905b8154815290600101906020018083116113ec57829003601f168201915b505050505081565b600a60149054906101000a900460ff1681565b6000600660003373ffffffffffffffffffffffffffffffffffffffff1673ffffffffffffffffffffffffffffffffffffffff16815260200190815260200160002060009054906101000a900460ff16905090565b6000600760003373ffffffffffffffffffffffffffffffffffffffff1673ffffffffffffffffffffffffffffffffffffffff16815260200190815260200160002060009054906101000a900460ff16905090565b600981815481106114dc57600080fd5b906000526020600020016000915054906101000a900473ffffffffffffffffffffffffffffffffffffffff1681565b6000600560003373ffffffffffffffffffffffffffffffffffffffff1673ffffffffffffffffffffffffffffffffffffffff16815260200190815260200160002060009054906101000a900460ff16905090565b60006101a46003546115719190612175565b421161157c57600080fd5b6000805b60088054905081101561171f578160046000600884815481106115a6576115a56122cd565b5b9060005260206000200160009054906101000a900473ffffffffffffffffffffffffffffffffffffffff1673ffffffffffffffffffffffffffffffffffffffff1673ffffffffffffffffffffffffffffffffffffffff16815260200190815260200160002054111561171257600460006008838154811061162a576116296122cd565b5b9060005260206000200160009054906101000a900473ffffffffffffffffffffffffffffffffffffffff1673ffffffffffffffffffffffffffffffffffffffff1673ffffffffffffffffffffffffffffffffffffffff168152602001908152602001600020549150600881815481106116a6576116a56122cd565b5b9060005260206000200160009054906101000a900473ffffffffffffffffffffffffffffffffffffffff16600a60006101000a81548173ffffffffffffffffffffffffffffffffffffffff021916908373ffffffffffffffffffffffffffffffffffffffff1602179055505b8080600101915050611580565b506001600a60146101000a81548160ff021916908315150217905550600a60009054906101000a900473ffffffffffffffffffffffffffffffffffffffff1691505090565b6000819050919050565b61177781611764565b82525050565b6000602082019050611792600083018461176e565b92915050565b600081519050919050565b600082825260208201905092915050565b6000819050602082019050919050565b600073ffffffffffffffffffffffffffffffffffffffff82169050919050565b60006117ef826117c4565b9050919050565b6117ff816117e4565b82525050565b600061181183836117f6565b60208301905092915050565b6000602082019050919050565b600061183582611798565b61183f81856117a3565b935061184a836117b4565b8060005b8381101561187b5781516118628882611805565b975061186d8361181d565b92505060018101905061184e565b5085935050505092915050565b600060208201905081810360008301526118a2818461182a565b905092915050565b6000604051905090565b600080fd5b600080fd5b600080fd5b600080fd5b6000601f19601f8301169050919050565b7f4e487b7100000000000000000000000000000000000000000000000000000000600052604160045260246000fd5b611911826118c8565b810181811067ffffffffffffffff821117156119305761192f6118d9565b5b80604052505050565b60006119436118aa565b905061194f8282611908565b919050565b600067ffffffffffffffff82111561196f5761196e6118d9565b5b611978826118c8565b9050602081019050919050565b82818337600083830152505050565b60006119a76119a284611954565b611939565b9050828152602081018484840111156119c3576119c26118c3565b5b6119ce848285611985565b509392505050565b600082601f8301126119eb576119ea6118be565b5b81356119fb848260208601611994565b91505092915050565b600060208284031215611a1a57611a196118b4565b5b600082013567ffffffffffffffff811115611a3857611a376118b9565b5b611a44848285016119d6565b91505092915050565b611a56816117e4565b8114611a6157600080fd5b50565b600081359050611a7381611a4d565b92915050565b600060208284031215611a8f57611a8e6118b4565b5b6000611a9d84828501611a64565b91505092915050565b611aaf81611764565b8114611aba57600080fd5b50565b600081359050611acc81611aa6565b92915050565b600060208284031215611ae857611ae76118b4565b5b6000611af684828501611abd565b91505092915050565b611b08816117e4565b82525050565b6000602082019050611b236000830184611aff565b92915050565b60008115159050919050565b611b3e81611b29565b82525050565b6000602082019050611b596000830184611b35565b92915050565b600081519050919050565b600082825260208201905092915050565b60005b83811015611b99578082015181840152602081019050611b7e565b60008484015250505050565b6000611bb082611b5f565b611bba8185611b6a565b9350611bca818560208601611b7b565b611bd3816118c8565b840191505092915050565b60006020820190508181036000830152611bf88184611ba5565b905092915050565b7f74686520736561736f6e206973206e6f74207374617274656420796574000000600082015250565b6000611c36601d83611b6a565b9150611c4182611c00565b602082019050919050565b60006020820190508181036000830152611c6581611c29565b9050919050565b7f416e6f7468657220736561736f6e20697320616c726561647920676f696e672060008201527f6f6e21205761697420666f72207468697320736561736f6e20746f206765742060208201527f6f76657200000000000000000000000000000000000000000000000000000000604082015250565b6000611cee604483611b6a565b9150611cf982611c6c565b606082019050919050565b60006020820190508181036000830152611d1d81611ce1565b9050919050565b7f4e487b7100000000000000000000000000000000000000000000000000000000600052602260045260246000fd5b60006002820490506001821680611d6b57607f821691505b602082108103611d7e57611d7d611d24565b5b50919050565b60008190508160005260206000209050919050565b60006020601f8301049050919050565b600082821b905092915050565b600060088302611de67fffffffffffffffffffffffffffffffffffffffffffffffffffffffffffffffff82611da9565b611df08683611da9565b95508019841693508086168417925050509392505050565b6000819050919050565b6000611e2d611e28611e2384611764565b611e08565b611764565b9050919050565b6000819050919050565b611e4783611e12565b611e5b611e5382611e34565b848454611db6565b825550505050565b600090565b611e70611e63565b611e7b818484611e3e565b505050565b5b81811015611e9f57611e94600082611e68565b600181019050611e81565b5050565b601f821115611ee457611eb581611d84565b611ebe84611d99565b81016020851015611ecd578190505b611ee1611ed985611d99565b830182611e80565b50505b505050565b600082821c905092915050565b6000611f0760001984600802611ee9565b1980831691505092915050565b6000611f208383611ef6565b9150826002028217905092915050565b611f3982611b5f565b67ffffffffffffffff811115611f5257611f516118d9565b5b611f5c8254611d53565b611f67828285611ea3565b600060209050601f831160018114611f9a5760008415611f88578287015190505b611f928582611f14565b865550611ffa565b601f198416611fa886611d84565b60005b82811015611fd057848901518255600182019150602085019450602081019050611fab565b86831015611fed5784890151611fe9601f891682611ef6565b8355505b6001600288020188555050505b505050505050565b7f566f7465722068617320616c726561647920766f746564000000000000000000600082015250565b6000612038601783611b6a565b915061204382612002565b602082019050919050565b600060208201905081810360008301526120678161202b565b9050919050565b7f566f746572206973206e6f742072656769737465726564210000000000000000600082015250565b60006120a4601883611b6a565b91506120af8261206e565b602082019050919050565b600060208201905081810360008301526120d381612097565b9050919050565b7f43616e646964617465206973206e6f7420726567697374657265640000000000600082015250565b6000612110601b83611b6a565b915061211b826120da565b602082019050919050565b6000602082019050818103600083015261213f81612103565b9050919050565b7f4e487b7100000000000000000000000000000000000000000000000000000000600052601160045260246000fd5b600061218082611764565b915061218b83611764565b92508282019050808211156121a3576121a2612146565b5b92915050565b7f5468657265206973206e6f20736561736f6e20676f696e67206f6e2c2077616960008201527f742074696c6c206e657720736561736f6e206973207374617274656400000000602082015250565b6000612205603c83611b6a565b9150612210826121a9565b604082019050919050565b60006020820190508181036000830152612234816121f8565b9050919050565b7f54686520726573756c747320617265206e6f7420796574206465636c6172656460008201527f2100000000000000000000000000000000000000000000000000000000000000602082015250565b6000612297602183611b6a565b91506122a28261223b565b604082019050919050565b600060208201905081810360008301526122c68161228a565b9050919050565b7f4e487b7100000000000000000000000000000000000000000000000000000000600052603260045260246000fd5b7f416c7265616479206120566f7465722100000000000000000000000000000000600082015250565b6000612332601083611b6a565b915061233d826122fc565b602082019050919050565b6000602082019050818103600083015261236181612325565b9050919050565b7f5468652061647265737320697320616c7265616479207061727469636970617460008201527f696e6720617320612063616e6469646174652100000000000000000000000000602082015250565b60006123c4603383611b6a565b91506123cf82612368565b604082019050919050565b600060208201905081810360008301526123f3816123b7565b9050919050565b7f5468652074696d6520666f72207265676973746572696e6720766f746572206960008201527f73206f7665722100000000000000000000000000000000000000000000000000602082015250565b6000612456602783611b6a565b9150612461826123fa565b604082019050919050565b6000602082019050818103600083015261248581612449565b9050919050565b7f416c726561647920612063616e64696461746521000000000000000000000000600082015250565b60006124c2601483611b6a565b91506124cd8261248c565b602082019050919050565b600060208201905081810360008301526124f1816124b5565b9050919050565b7f546865206164647265737320697320616c72656164792070617274696369706160008201527f74696e67206173206120766f7465722100000000000000000000000000000000602082015250565b6000612554603083611b6a565b915061255f826124f8565b604082019050919050565b6000602082019050818103600083015261258381612547565b9050919050565b7f5468652074696d6520666f72207265676973746572696e672063616e6469646160008201527f746573206973206f766572210000000000000000000000000000000000000000602082015250565b60006125e6602c83611b6a565b91506125f18261258a565b604082019050919050565b60006020820190508181036000830152612615816125d9565b9050919050565b7f496e646578206f7574206f6620626f756e647300000000000000000000000000600082015250565b6000612652601383611b6a565b915061265d8261261c565b602082019050919050565b6000602082019050818103600083015261268181612645565b905091905056fea26469706673582212205c345f0116d954033ff93f818904b0a1e7a70834cd1d11e40c87446ac62e7b1264736f6c63430008180033",
  "linkReferences": {},
  "deployedLinkReferences": {}
}